:020000040800F2
:10000000000400200F0200081D0200081F02000863
:100010002102000823020008250200080000000059
:10002000000000000000000000000000270200089F
:1000300029020008000000002B0200082D02000821
:100040002F0200082F0200082F0200082F020008CC
:100050002F0200082F0200082F0200082F020008BC
:100060002F0200082F0200082F0200082F020008AC
:100070002F0200082F0200082F0200082F0200089C
:100080002F0200082F0200082F0200082F0200088C
:100090002F0200082F0200082F0200082F0200087C
:1000A0002F0200082F0200082F0200082F0200086C
:1000B0002F020008F90800082F0200082F0200088C
:1000C0002F0200082F0200082F0200082F0200084C
:1000D0002F0200088D0D00082F0200082F020008D3
:1000E0002F0200082F0200082F0200082F0200082C
:1000F0002F0200082F0200082F0200082F0200081C
:100100002F0200082F020008050A00082F0200082D
:100110002F0200082F020008910A00082F02000891
:100120002F0200082F0200082F0200082F020008EB
:1001300000F002F800F05AF80AA090E8000C82449F
:100140008344AAF10107DA4501D100F04FF8AFF27C
:10015000090EBAE80F0013F0010F18BFFB1A43F0A5
:1001600001031847C8230000E82300000A444FF0A9
:10017000000C10F8013B13F0070408BF10F8014B06
:100180001D1108BF10F8015B641E05D010F8016B4B
:10019000641E01F8016BF9D113F0080F1EBF10F8AF
:1001A000014BAD1C0C1B09D16D1E58BF01F801CBD2
:1001B000FAD505E014F8016B01F8016B6D1EF9D555
:1001C0009142D6D37047000000230024002500266A
:1001D000103A28BF78C1FBD8520728BF30C148BFAA
:1001E0000B6070471FB51FBD10B510BD00F072F851
:1001F0001146FFF7F7FF00F0AFFE00F090F803B4F0
:10020000FFF7F2FF03BC00F095F8000070470B48C1
:1002100080470B4981F308880A480047FEE7FEE75C
:10022000FEE7FEE7FEE7FEE7FEE7FEE7FEE7FEE7A6
:1002300005480649044A064B704700000D020008B5
:10024000B80A002031010008B8020020B80A0020D6
:10025000B802002030BF704720BF704740BF7047D2
:10026000BFF36F8F7047BFF34F8F7047BFF35F8F40
:10027000704701DF7047EFF31480704780F31488F4
:10028000BFF36F8F7047EFF30980704780F30988E1
:100290007047EFF30880704780F30888704762B6B4
:1002A000704772B67047EFF31080704771B67047B1
:1002B00061B67047EFF31380704780F31188704781
:1002C000EFF31280704740BA704700BA704770472A
:1002D00070477047754600F029F8AE46050069463C
:1002E000534620F00700854618B020B5FFF7A0FF61
:1002F000BDE820404FF000064FF000074FF0000827
:100300004FF0000B21F00701AC46ACE8C009ACE8A7
:10031000C009ACE8C009ACE8C0098D467047044686
:10032000AFF300802046FFF76AFF000000487047E7
:100330005802002001491820ABBEFEE7260002004B
:100340007047000004490A6822F010020A600A6837
:1003500002430A60704700000020024004490A6816
:1003600002F038020A600A6802430A60704700001F
:100370000020024008B50121482000F009F92020A2
:10038000ADF8000010208DF8030003208DF8020066
:100390006946094800F014F82021074800F060F889
:1003A0000120ADF800006946044800F009F8012179
:1003B000024800F055F808BD000C0140001801404B
:1003C000F0B5CB780022DC0603F00F0301D58C7862
:1003D00023430C880F2714F0FF0F4FF0010C1CD0A3
:1003E000D0F800500E880CFA02F42640A64210D134
:1003F000960007FA06FE25EA0E0E03FA06F5CE78F9
:1004000045EA0E05282E00D14461CE78482E00D151
:100410000461521C082AE5D305600A88FF2A1ED908
:100420004568002202F108060CFA06F40E88264000
:10043000A64210D1960007FA06FE25EA0E0E03FA30
:1004400006F5CE7845EA0E05282E00D14461CE7817
:10045000482E00D10461521C082AE3D34560F0BD48
:1004600001617047F0B50F23C27801784FF0E024A6
:10047000012742B3D4F80C2D467802F4E062C2F5AD
:10048000E062120AC2F10405D3408278AE401A40FD
:10049000324315018A07D20E954021F003010B1952
:1004A000D3F80064FF2191408E430D402E43C3F8E2
:1004B00000640078410900F01F0004EB81018740CF
:1004C000C1F80071F0BD01F01F008740480904EB3E
:1004D0008000C0F88071F0BD0249084302490860FD
:1004E000704700000000FA050CED00E0024A1140E0
:1004F000014302480160704780FFFF1F08ED00E0E4
:100500000020014908607047800123420120014911
:10051000086070478001234210B50848008840F207
:100520008331884209DA054800880A300349088087
:10053000B3210248008800F07DFA10BD10000020B1
:1005400010B5074800880A2809DD054800880A38E0
:1005500003490880B3210248008800F06BFA10BDFF
:1005600010000020034A516821F4404101435160CA
:100570007047000000100240044A0029D16901D0F0
:10058000014300E08143D161704700000010024048
:10059000044A0029916901D0014300E0814391613F
:1005A000704700000010024010B500F03BF84FF417
:1005B000803000F0C9F800F00FF90446012C2BD16F
:1005C0001020FFF7BFFE0220FFF7C8FE002000F05A
:1005D000B1F8002000F0DCF8A00200F0CFF8A00392
:1005E000FFF7C0FF4FF4E011200400F0E1F8012014
:1005F00000F0D8F800BF392000F07CF80028FAD0CD
:10060000022000F0DFF800BF00F08CF80828FBD1D2
:1006100000210006FFF76AFF4FF4A060FFF75CFFC0
:1006200010BD00000B48016841F001010160416804
:10063000094A114041600168084A1140016001689F
:1006400021F4802101604268002122F4FE02426010
:1006500081607047001002400000FFF8FFFFF6FEC7
:1006600030B5204A5168204B11F00C0103D0042909
:1006700001D0082901D0036011E05168022401F47F
:10068000701104EB91415468184D14F4803F02D06E
:100690005468A40301D5694300E0594301605168DF
:1006A000134B01F0F00109095C5C0168E140416015
:1006B000546804F4E064240A1C5D21FA04F48460A4
:1006C000546804F46054E40A1B5DD940C160526868
:1006D000074B02F44042920B1B1F9A5CB1FBF2F1F4
:1006E000016130BD0010024000127A0000093D0097
:1006F00024240008034600205909094A012901D190
:10070000116804E0022901D1116A00E0516A03F086
:100710001F02012393400B4200D0012070470000CC
:10072000001002400248406800F00C0070470000D2
:1007300000100240034A516821F0F001014351606A
:1007400070470000001002400B490A6822F4803212
:100750000A600A68B0F5803F22F480220A6007D060
:10076000B0F5802F03D1086840F4A02008607047DE
:10077000086840F48030F9E700100240034A5168ED
:1007800021F4E06101435160704700000010024015
:10079000034A516821F4605141EAC000506070473B
:1007A0000010024001490866704700000000424204
:1007B000034B5A68084322F47C1210435860704778
:1007C00000100240034A516821F0030101435160C7
:1007D000704700000010024030B50B4C40F2FF158E
:1007E0003120FFF787FF20706068401C6060207830
:1007F00010B96068A842F3D13120FFF77BFF0028D1
:1008000000D0012030BD00007C0100207FB50446EF
:100810000D463748C06940F001003549C8610846B7
:10082000806940F004008861324800686FF30F006F
:1008300030490860084600684BF6BB3108432D4933
:1008400008602C480C30006840F00F0029490C313A
:1008500008604FF08040848505856020ADF8000079
:100860000120ADF802004FF40770ADF8060000203B
:10087000ADF8080069464FF0804000F04BF90821C0
:10088000C80600F077F901220021900700F014F962
:1008900069464FF0804000F073F90821C80600F067
:1008A000ADF901220421080700F006F969464FF06E
:1008B000804000F0ABF90821C80600F0E3F90122FE
:1008C0000821C80600F0F8F869464FF0804000F0B3
:1008D000DFF90821C80600F00BFA01220C2190076D
:1008E00000F0EAF80121880700F0F4F87FBD00006D
:1008F000001002400008014000B50948008800F0DF
:10090000010030B107480068401C0649086000F04B
:1009100041FB0348008820F001000149088000BD28
:1009200010040040780100202DE9FF470446894665
:100930002F48806940F008002D4988610846C06949
:1009400040F00400C8612B480068C0F31300294937
:100950000860084600682849084326490860254879
:100960000C30006840F0E00022490C310860234858
:100970000480001FA0F800906020ADF80000012066
:10098000ADF80200601C01F036FC07464FF0333230
:100990001B4B01F047FC054601F000FC80B2ADF8AE
:1009A0000600694615482C3800F0B4F808211348B1
:1009B0002C3800F0DFF80122002110482C3800F01C
:1009C0007BF869460D482C3800F0DAF808210B480E
:1009D0002C3800F013F90122042108482C3800F0CB
:1009E0006BF8012105482C3800F074F8BDE8FF874A
:1009F00000100240000C01400000B0BB2C08004079
:100A00003333D33F10B50121074800F06EF848B1E9
:100A10000121054800F05BF804480068C043044920
:100A2000C1F8940110BD0000000C004094812142E7
:100A3000008021427FB505460C4601210820FFF7C2
:100A40009BFDADF80850ADF804400020ADF80A0059
:100A5000ADF8060001A90D4800F052F90122114637
:100A60000A4800F04EF832208DF8000001208DF881
:100A700001008DF802008DF803006846FFF7F2FCD4
:100A80000121024800F026F87FBD0000000C004064
:100A900010B50748008A00F0010010B10549086947
:100AA00080470348008A20F001000149088210BDF8
:100AB000001000405C00002010B5038C01248C4025
:100AC000A3430384038C8A401343038410BDC943AA
:100AD000018270470029018802D041F0010102E043
:100AE00040F2FE321140018070470246138A002016
:100AF00092890B4202EA010202D0002A00D00120B2
:100B00007047002A828901D00A4300E08A4382812B
:100B100070470000F0B5028C22F001020284058CBF
:100B20008288038B0C8823F070030E8925F0020560
:100B30001C434B882E43CF880C4D33438786A842F5
:100B400002D00B4DA8420DD14D8923F008031D435F
:100B500025F004068B8822F4034533438E89CA8925
:100B60002E433243828004830384F0BD002C014075
:100B700000340140028B22F008020A4302837047CE
:100B800070B5028C22F010020284028C8388048BE0
:100B900022F0200224F4E0450C88164E240645EA93
:100BA00014440D892D0542EA15454A88120545EA87
:100BB0001242CD88B042058702D00F4DA84215D110
:100BC0004D8922F080022D0542EA15458A8825F0DC
:100BD0004005120545EA12428D89C989AD0423F406
:100BE0000C4343EA1545890445EA11438380048395
:100BF000028470BD002C014000340140028B22F4BD
:100C0000006242EA012101837047000070B5028C46
:100C100022F480720284058C8388828B0C8822F0F7
:100C200070020E89144325F40075320645EA124617
:100C30004A88CD88120646EA1242104E8587B04295
:100C400002D00F4DA84215D122F400654A8923F441
:100C50003043120645EA124222F480658A88120661
:100C600045EA12428D89C9892D0543EA15450905D2
:100C700045EA114383808483028470BD002C0140C7
:100C800000340140828B22F008020A4382837047BD
:100C900070B5028C22F480520284058C8288838B8A
:100CA00025F4005523F4E0440B880F4E1B0644EA5C
:100CB00013430C89240745EA14444D882D0744EA60
:100CC0001545CC88B042A0F8404002D0074CA04265
:100CD00005D18989C2F30D04890544EA1142828055
:100CE0008383058470BD0000002C01400034014066
:100CF000828B22F4006242EA012181837047000066
:100D000010B5028802F08F020280CA884B880488DE
:100D10001A43224302808A88064C012382850A886E
:100D2000A0420285838202D0034A904201D1097A0F
:100D3000018610BD002C01400034014038B5054645
:100D40000C4636208DF8000003208DF801000220AB
:100D50008DF8020001208DF803006846FFF782FB42
:100D60000848C06940F010000649C86106488585FA
:100D7000048501221146FFF7C4FE01210248FFF756
:100D8000A9FE38BD00100240001000401D4909882E
:100D900001F0200111B31B49091D0988C8B21A4985
:100DA000098801F40041C9B91749098801F4804153
:100DB00061B10A2803D00021134A118020E01249B2
:100DC000098841F40041104A118019E00D2806D12C
:100DD0000D49098841F480410B4A118010E00A490D
:100DE0000988C1F30D01094A505407490988491C73
:100DF000054A118011460988C72901DD00211180AB
:100E000070470000003801400400002084010020E9
:100E10000029818902D041F4005101E021F4005100
:100E20008181704710B5C1F3421301F01F04012105
:100E3000A140012B01D10C3004E0022B01D1103074
:100E400000E01430002A026801D00A4300E08A431F
:100E5000026010BD30B50446008A85B00D464CF6E0
:100E6000FF710840E98801432182A0894EF6F31101
:100E70000840A9882A8911436A8902431143A18144
:100E8000A08A4FF6FF410840A9890143A182684624
:100E9000FFF7E6FB1048844201D1039800E0029876
:100EA00019214843296864228900B0FBF1F0B0FBA6
:100EB000F2F109010B096FF018056B43322500EBC5
:100EC000830005EB0010B0FBF2F000F00F000843C8
:100ED000208105B030BD0000003801404FF0E02116
:100EE000096921F004014FF0E0221161C21700EB03
:100EF0005272C2F3C702074B1A701946097801EB08
:100F00004102C2EBC1114FF6FF7202EAC101024A6F
:100F100011807047000000200200002010B5FFF78C
:100F2000C0F9FFF741FB4820FFF7D8FF4FF41650F8
:100F300000F052F9074841684820884700F088F8D7
:100F4000FFF718FA40F2CF216320FFF773FDFFF798
:100F5000A6F910BD5C0000200024FFF7DFFF00BFF2
:100F60000A4800684FF47A71B0FBF1F0A042F7D064
:100F700006480068B0FBF1F404480068B0FBF1F5E6
:100F8000294603A000F0C8FFEAE70000780100202E
:100F900025640A0010B5002453E02B4810F83400F3
:100FA00001284CD1284800EBC400B0F902002649C2
:100FB00001EBC401B1F9041088423CD0234830F859
:100FC0001400401C214921F81400084630F8140090
:100FD0001D4901EBC401B1F9061088422FDB002046
:100FE0001A4921F81400184800EBC400407810B1E9
:100FF000012816D10AE0144800EBC4004088401CC8
:1010000000B2114901EBC40148800AE00E4800EB30
:10101000C4004088401E00B20B4901EBC401488067
:1010200000BF00BF084901EBC401B1F9020021462D
:1010300000F054F803E00020034901F83400601C7C
:10104000C4B2062CA9DB10BD480100204C020020D0
:1010500010B540F2CF21632000F092F8C72141F68D
:101060001F40FFF761FCC72141F61F40FFF7CEFB91
:10107000002406E021464FF4077000F02FF8601CB2
:10108000C4B2062CF6DB10BD2DE9F04707460C462E
:1010900015461E46DDE9099ADDF8208052460021FA
:1010A000384600F03FF852460121204600F03AF859
:1010B00052460221284600F035F8524603213046B8
:1010C00000F030F852460421404600F02BF852461A
:1010D0000521484600F026F8BDE8F08719B94FF021
:1010E0008043988618E0012902D18B07188713E006
:1010F000022902D14B0798870EE0032902D1074B42
:10110000188009E0042902D1054B188004E0052964
:1011100002D1034B1B1D18807047000040000040A7
:101120003408004010B5154B13F831302BBBB428F0
:1011300000DCB420B0F5617F01DB4FF461700F4B30
:1011400003EBC103B3F902301B1A05D401230B4C86
:1011500004EBC104637004E00023084C04EBC104F9
:101160006370064B03EBC1039880044B03EBC10390
:10117000DA800123014C04F8313010BD4801002011
:1011800038B505460C461D208DF8000001208DF86D
:10119000010002208DF8020001208DF8030068464E
:1011A000FFF760F90A48C06940F002000849C861C9
:1011B00008480580001F04800122114605482C388C
:1011C000FFF79FFC012103482C38FFF783FC38BD53
:1011D000001002402C04004010B586B0044624489C
:1011E000806944F20401084321498861214800686C
:1011F00020F47F601F4908600846006840F40B60D7
:1012000008601C480830006840F4706019490831D3
:10121000086002940020ADF80C00ADF80E00ADF8A7
:101220001000ADF814000C20ADF8120002A912480D
:10123000FFF710FE01211048FFF7EAFD012240F2FE
:1012400025510D48FFF7EEFD25208DF80400032001
:101250008DF805008DF8060001208DF8070001A823
:10126000FFF700F905480649086006B010BD000008
:1012700000100240040801400038014085120008B7
:101280000800002000BF0649098801F0400100293C
:10129000F9D0C0F30801024A121D11807047000006
:1012A0000038014030B595B0054613AB12AA09A924
:1012B000284600F009FA044614B1204615B030BDA6
:1012C0000020149026E0224909689DF8502001EB87
:1012D000C20113AB11AA486801A900F0F5F9044650
:1012E0000CB12046EAE709A901A800F051FC60B959
:1012F0009DF844009DF84810884201DD0220DDE79A
:101300009DF85000124988750AE09DF85000401C75
:10131000C0B214900E48007D9DF850108842D2DC77
:1013200000BF0B48007D9DF85010884201D1042079
:10133000C4E714A9284600F0A7FA04460CB12046D9
:10134000BCE79DF85000024948750020B6E7000050
:101350005C000020F0B59BB000268F48847D007DA6
:10136000A04201DC1BB0F0BD8B49096801EBC40150
:1013700007AB08AA486809A900F0A6F909A987A03F
:1013800000F0CAFD002544E08348008B0121A940FC
:101390000840D8B1222183A000F0BEFD284600F00D
:1013A000F9FA7D492431471839467FA000F0B4FD91
:1013B00022217CA000F0B0FD284600F0EBFA76492F
:1013C0002431084411A941F8250018E0284600F00E
:1013D000E1FA71492431085811A941F825006E48F5
:1013E000C07D30B911A850F8251070A000F094FD10
:1013F00005E011A850F825106DA000F08DFD9DF8B6
:101400002000401EA84202D06BA000F085FD681CA1
:10141000C5B29DF820008542B6DB68A000F07CFDD7
:101420005D48407D0B280DD2DFE800F0060D151E4B
:1014300027323F4E5F7287005749096851F83400E0
:101440008047064690E0544A126852F834101198CA
:101450008847064688E0504B1B6853F83420DDE986
:101460001101904706467FE04B4F3F6857F83430F4
:1014700011A807C89847064676E0DFF81CC1DCF8DB
:1014800000C05CF8347011A80FC8B84706466BE07E
:101490001598DFF804C10090DCF800C05CF83470E7
:1014A00011A80FC8B84706465EE0DDE91501DFF870
:1014B000E8C0CDE90001DCF800C05CF8347011A888
:1014C0000FC8B84706464FE0DDE915121798DFF858
:1014D000C8C0CDE900120290DCF800C05CF834709E
:1014E00011A80FC8B84706463EE0DDE91632159947
:1014F0001898DFF8A4C0CDE9013200910390DCF820
:1015000000C05CF8347011A80FC8B84706462BE03D
:10151000DDE91623DDE91810CDE90123CDE903103B
:101520001598DFF874C00090DCF800C05CF83470E7
:1015300011A80FC8B847064616E0DDE91713DDE924
:101540001902CDE90213CDE90402DDE91501DFF846
:1015500048C0CDE90001DCF800C05CF8347011A887
:101560000FC8B847064600BF00BF9DF81C00012801
:101570000CD10948C07D20B9314611A000F0CCFC47
:1015800007E0314610A000F0C7FC02E00DA000F01B
:10159000C3FC00BFE6E600005C0000200D0A2573D6
:1015A000280000002563000025730000256C7500ED
:1015B00030582558000000002C00000029000000D1
:1015C0003D256C753B0D0A003D305825583B0D0AF2
:1015D00000000000F0B5034615460020002200265A
:1015E00000244FE01F782C2F01D104B901221F786D
:1015F000292F01D01F780FB904B944E0002E34D14F
:101600001F78302F02DB1F78392F11DD1F78612FF3
:1016100002DB1F78662F0BDD1F78412F02DB1F785E
:10162000462F05DD1F78582F02D01F78782F0CD158
:1016300002B128E01F78612F03DB1F78203F0F7075
:1016400001E01F780F70491C19E01F78222F04D188
:1016500002B118E00126012411E01F78202F0ED0DE
:101660001F782C2F0BD0FF260DE01F78222F00D1E2
:10167000002402B107E014B11F780F70491C471C09
:10168000F8B25B1CAEE700BF00270F702E70F0BDF4
:1016900010B50446002010700BE020780870641C20
:1016A000491C1078401C10701078984201DB012012
:1016B00010BD2078202802D020780028EDD100200D
:1016C000087000BFF4E700002DE9FF4F85B08046A9
:1016D00089460027002004900390012002904FF0DB
:1016E000000B002544461DE02078202816D005F088
:1016F0007F00052812DA0DB945F0800505F07F005E
:10170000042803D120782A2800D00EE0207805F0A4
:101710007F010DF80100681CC5B202E0852D00D1E3
:1017200003E0641C20780028DED100BF8DB10020CA
:1017300005F07F010DF8010051A1684600F028FA7C
:1017400018B900210898017002E001210898017081
:1017500000254FF0000A444614E0641C0AF1010021
:1017600000F0FF0A2078202802D020782A2809D10A
:10177000204600F09DF90646282E03D02A2E01D0DF
:10178000CDF810A02078282802D020780028E4D1B5
:101790004446049810B10498401C04444FF0000AD9
:1017A000002654E0207810B94FF0010A50E020786C
:1017B000282803D116B9781CC7B213E0207829284D
:1017C00008D13EB917B1781EC7B201E04FF0010A47
:1017D00047B93DE02078222804D10EB9012000E06D
:1017E0000020064647B9207820282FD0207889F895
:1017F000000009F1010929E020782C2804D10120FA
:101800000290681CC5B214E02078202811D02078FE
:1018100028280ED04DB9BBF1050F06DA20780DF857
:101820000B000BF1010000F0FF0B0298401CC0B24E
:101830000290012F0AD10298022807D10298401C79
:10184000C0B202900398401CC0B20390641CA9E788
:1018500000BF0398012809D100200DF80B0008A152
:10186000684600F095F908B900200390079903989D
:101870000870002089F80000504609B0BDE8F08FDC
:10188000766F6964000000002DE9F043B5B00546AD
:101890000F460024002604E000213D488155701CBD
:1018A000C6B20A2EF8DB06E06D1C287818B90120B4
:1018B00035B0BDE8F08328782828F5D16D1C61E0AB
:1018C00034AA69462846FFF785FE064635449DF84A
:1018D000D00020B1012827D0FF284CD149E09DF845
:1018E000000000B333A9684600F0EDF806460EB1DB
:1018F0000220DDE7204600F04DF825490A31339AF1
:101900000A50A1F12400008B0121A1408843204905
:101910001A39088304211E480155601CC4B20A2CE0
:1019200001DD0320C4E726E0684600F04DF9401CC5
:1019300000F0FF08204600F02DF815490A3100EBB1
:1019400001094946684600F034F911481A38018BFC
:101950000120A040014388B20D491A3908830C4880
:1019600000F80480601CC4B20A2C01DD03209FE74C
:1019700001E002209CE700BF2878292801D02878C0
:1019800000B900E09CE700BF3C70002090E7000039
:101990007600002002460020002105E0044B5B5C3D
:1019A0000344D8B24B1CD9B29142F7DB7047000018
:1019B0007600002010B5044604EBC40000EB0410D0
:1019C0000122C2EB800081B20A20FFF7B7F90120A3
:1019D0000149C87510BD00005C00002010B502462A
:1019E000012000E050430B00A1F10104E1B2F9D164
:1019F00010BD000070B51D48008800F400400028AC
:101A000033D01A480578002019494855194881688B
:101A10001748884704461CB91649C868804721E022
:101A2000134800F0DDF80546012D00D02C46CCB15E
:101A3000012C06D0022C08D0032C0AD0042C10D183
:101A40000BE00DA000F068FA0BE00EA000F064FAC5
:101A500007E00FA000F060FA03E010A000F05CFACD
:101A600000BF00BF00200149088070BD04000020B5
:101A7000840100205C000020BAAFCAFDB4EDCEF3B3
:101A8000210D0A00B2CECAFDB4EDCEF3210D0A003D
:101A9000B2CECAFDCCABB6E0210D0A00CEB4D5D291
:101AA000B5BDC6A5C5E4B5C4BAAFCAFD210D0A00CF
:101AB0000146491C00E0491C0878202801D1002972
:101AC000F9D1087870472DE9F04307460E46002506
:101AD0004FF00A083C46002030601FE0207839288B
:101AE00002DC207830280ADA2078462802DC2078C8
:101AF000412804DA2078582809D1012D07D120780F
:101B0000412801DB4FF01008681CC5B205E02078C1
:101B100000B904E00120BDE8F083641CDEE700BFEB
:101B20003C46B8F1100F0FD1032D01DA0220F2E785
:101B30002078302806D16078582803D1A41CA81E2C
:101B4000C5B204E00320E6E70DB90420E3E71BE09B
:101B50000DB1681EC5B22078392806DC20783028FF
:101B600003DB2078A0F1300902E02078A0F13709EA
:101B700029464046FFF732FF316809FB001030600C
:101B8000641C207800B900E0E2E700BF0020C2E753
:101B900002460AE010780B78984201D00120704785
:101BA000107800B902E0521C491CF3E700BF002086
:101BB000F5E706E002780A70027802B902E0401CFC
:101BC000491CF7E700BF70470146002005E00A788E
:101BD00002B903E0421CD0B2491CF8E700BF7047CD
:101BE00010B58CB004461E230BAA03A92046FFF7AC
:101BF0004FFD0090009810B101200CB010BD9DF871
:101C00002C00044400200B900EE07F489DF82C200F
:101C100050F8221003A8FFF7BBFF00B908E09DF8B9
:101C20002C00401CC0B20B909DF82C000828ECDB67
:101C300000BF9DF82C00072875D2DFE800F00405EE
:101C40000C2E5C88B30000BF70A000F065F970A096
:101C500000F062F9D5E06DA000F05EF96FA000F031
:101C60005BF900200B900EE07C4800689DF82C206A
:101C700000EBC20041687AA000F04EF99DF82C00FC
:101C8000401CC0B20B907548007D9DF82C10884216
:101C9000EADC5EA000F040F9B3E05CA000F03CF9A3
:101CA00071A000F039F900200B901AE06B49096827
:101CB0009DF82C2001EBC20101AB02AA486803A9E0
:101CC000FFF702FD654800689DF82C1050F83120A0
:101CD00003A975A000F020F99DF82C00401CC0B2AB
:101CE0000B905E48007D9DF82C108842DEDC47A0FA
:101CF00000F012F985E045A000F00EF90BAA03A947
:101D00002046FFF767FC9DF82C00D0B9694603A870
:101D1000FFF7D9FE0B909DF82C0028B967A0009919
:101D200000F0FAF80FE06AE09DF82C00042801D0DA
:101D3000022062E764A000F0EFF801204749C8756F
:101D400001E0022059E731A000F0E6F859E02FA0A9
:101D500000F0E2F80BAA03A92046FFF73BFC9DF830
:101D60002C00C8B9694603A8FFF7ADFE0B909DF89B
:101D70002C0020B959A0009900F0CEF80EE09DF893
:101D80002C00042801D0022037E757A000F0C4F847
:101D900000203249C87501E002202EE71BA000F0A8
:101DA000BBF82EE019A000F0B7F80BAA03A9204653
:101DB000FFF710FC9DF82C00D8B9694603A8FFF77F
:101DC00082FE0B909DF82C0088B92448C07D012824
:101DD00006D100980146026848A000F09DF80AE08C
:101DE00000980146026849A000F096F803E002203E
:101DF00003E7022001E705A000F08EF801E00120D2
:101E0000FBE600BF0020F8E6140000200D0A0000E9
:101E1000D6B8C1EECAA7D0A70D0A00002D2D2D2DD2
:101E20002D2D2D2D2D2D2D2D2D2D2D2D2D2D2D2DE2
:101E30002D2D2D2D2DBAAFCAFDC7E5B5A52D2D2D04
:101E40002D2D2D2D2D2D2D2D2D2D2D2D2D2D2D2DC2
:101E50002D2D2D2D2D2D2D2D200D0A005C00002067
:101E600025730D0A000000002D2D2D2D2D2D2D2D5B
:101E70002D2D2D2D2D2D2D2D2D2D2D2D2D2D2D2D92
:101E80002DBAAFCAFD204944202D2D2D2D2D2D2DED
:101E90002D2D2D2D2D2D2D2D2D2D2D2D2D2D2D2D72
:101EA0002D2D2D2D200D0A002573206964206973C6
:101EB0003A0D0A3058253038580D0A004845583A2E
:101EC000305825580D0A00003136BDF8D6C6B2CEBE
:101ED000CAFDCFD4CABE210D0A0000004445433AD2
:101EE000256C750D0A0000003130BDF8D6C6B2CEA3
:101EF000CAFDCFD4CABE210D0A0000002A283058DE
:101F00002558293D305825580D0A00002A282564F7
:101F1000293D25640D0A00000FB408B503A8009000
:101F20000099029800F031F80020009001B05DF8AF
:101F300014FB000010B504460A2C02D10D20FFF757
:101F4000F9FF0A48006840B1084800680470074873
:101F50000068401C0549086010BD0548006818B1BC
:101F6000204603490968884700BFF5E70C000020B8
:101F70000800002010B5044603E014F8010BFFF739
:101F8000D9FF20780028F8D110BD2DE9F34F87B094
:101F9000054600BF15F8014B04B9FBE0252C03D022
:101FA0002046FFF7C7FFF5E7002715F8014B302C57
:101FB00003D1012715F8014B04E02D2C02D1022793
:101FC00015F8014B4FF0000A07E00AEB8A0004EB1A
:101FD0004000A0F1300A15F8014B302C01DB392C00
:101FE000F3DD6C2C01D04C2C03D147F0040715F81D
:101FF000014B04B9CEE02646612E02DBA6F120009B
:10200000C6B24F2E42D006DC422E3CD0432E32D0F8
:10201000442E45D13DE0532E04D0552E3AD0582EB3
:102020003ED13AE00898006801900898001D089099
:102030004FF0000901E009F10109019810F80900C9
:102040000028F8D102E02020FFF774FF07F002001B
:1020500020B9484609F101095045F4D30198FFF72A
:1020600089FF02E02020FFF765FF484609F10109DA
:102070005045F7D38EE7089911F8042BD0B2089198
:10208000FFF758FF86E7022006900DE00820069033
:102090000AE000BF0A20069006E01020069003E048
:1020A0002046FFF747FF75E700BF07F0040028B19F
:1020B000089800680899091D08910CE0442E05D184
:1020C000089800680899091D089104E008980068BC
:1020D0000899091D08918346442E06D10BF0004053
:1020E00018B1CBF1000B47F008074FF0000800BF14
:1020F0000698BBFBF0F100FB11B0C6B20698BBFB23
:10210000F0FB092E06DD782C01D1272000E0072006
:102110003044C6B206F13000C2B2404608F10108B0
:1021200002A90A54BBF1000F02D0B8F1100FDFD39F
:1021300007F0080028B12D22404608F1010802A945
:102140000A54C14607F0010008B1302000E0202009
:10215000064602E03046FFF7EDFE07F0020020B928
:10216000484609F101095045F4D300BFA8F1010127
:10217000884602AA505CFFF7DDFEB8F1000FF5D1EA
:1021800002E02020FFF7D6FE484609F1010950453C
:10219000F7D3FFE600BF09B0BDE8F08F4FEA115357
:1021A000A3F58063D3F11E03A8BFD3F1200C08DB95
:1021B0004FF0004242EAC12252EA505232FA03F092
:1021C000704709420BD4102BC4BF0020704703F5A1
:1021D000787CBCF1FF3F05D04FF0FF3070474FF0E7
:1021E0000000704770B500F0C7F800BF4992248026
:1021F00000207047F0E710F0004248BF4042B0FABC
:1022000080F310FA03F10AD0C3F11D0303F58063D4
:102210004FEA415002EB035202EBD12170474FF0DD
:1022200000007047DFF848C170B51CEA111E1EBFE0
:102230001CEA13159EEA0C0F95EA0C0F00F06F8054
:1022400081EA030423EA4C134EEAD47E21EA4C11BE
:1022500041F4801143F48013AE44A1FB024CA0FB77
:102260000365AEF17F7E361955EB0C05A1FB034CDF
:102270004CF10003A0FB021C16EB0C06654153F168
:102280000003094218BF46F0010613F4007F0BD18A
:102290004FEA03314FEA0530340341EA155140EA71
:1022A00016506FF003020AE04FEAC3214FEAC5203F
:1022B000F40241EA555140EA56506FF0020202EB37
:1022C0002E4201EB025585EACE710AD05FEA440C3A
:1022D00018BF24F0004450F1000041F1000120EA51
:1022E000D47040F2FE7C624500D270BDA84214BF9B
:1022F0004FF080444FF04044002E08BF0024BEF150
:10230000806FA8BFA1F1C041BDE8704080F282801B
:102310004FF0000001F1C04101F0004170479EEA1A
:102320000C0F0CEA131518BF95EA0C0F06D04FF0EE
:10233000000081EA030E0EF0004170BD00F01CF8B1
:102340008900013E00F007B800F009B84FEA430CDD
:102350005FEA5C5C08D081EA030100F05BB84FEAF9
:10236000410C5FEA5C5CF6D14FF000000149704718
:102370000000FF070000F87F0EF1020E2EF0030EA2
:102380005EF8046B364205D4012A43EB030515F5CC
:10239000001F12D8012841EB010C1CF5001F0CD8BE
:1023A0000ED14FEAD17C15F5001F0CEB4C0C0CF153
:1023B000020C08BF4CEBD37C04E04FF0080C01E0AA
:1023C0004FEAD37C0CEB4C0526FA05F606F007061F
:1023D000B6F1040C06D20EEB860CBDE870404CF052
:1023E000010C6047DFE80CF0090B02024FF00041DE
:1023F0004FF00000A1F5002170BD194610460128DC
:1024000051EB010418BFD4F5001484BF002001F083
:10241000004170BD0808A0F500114FEA3101704776
:102420000204060800000000010203040102030484
:10243000060708093F000000646563006964000046
:1024400068656C70000000006C6973740000000027
:1024500068657800766F69642050574D5F444F5728
:102460004E282900766F69642050574D5F555028DB
:1024700029000000766F6964205045355F5365740C
:102480006269742829000000766F69642050453520
:102490005F5265736574626974282900766F696498
:1024A0002073746565725F7365745F616C6C28730B
:1024B000313620616E67312C2073313620616E67B2
:1024C000322C2073313620616E67332C2073313605
:1024D00020616E67342C2073313620616E67352C95
:1024E0002073313620616E67362C207331362073AD
:1024F0007065656429000000766F696420737465F7
:1025000065725F7365745F73656C28733136206123
:102510006E676C652C20636861722073656C2C207B
:102520007331362073706565642900004C250008FE
:1025300000000020840100006C010008B0250008A4
:102540008401002034090000C80100080110238F15
:10255000011334241B0840041A48041A3C041A507E
:10256000041A38041325111B08F8081341051B0829
:1025700064081A19081A54081A0D081A74081A015E
:10258000081A88081389101B089C08222C1420B5EF
:10259000191408A512140855131B08F50C22061966
:1025A0006201D42D1C021C02DB092608A1000000D8
:0400000508000131BD
:00000001FF
